{"contracts/CertificateRegistry.sol":{"CertificateRegistry":{"abi":[{"inputs":[],"stateMutability":"nonpayable","type":"constructor"},{"anonymous":false,"inputs":[{"indexed":false,"internalType":"string","name":"hash","type":"string"},{"indexed":false,"internalType":"address","name":"storedBy","type":"address"}],"name":"CertificateStored","type":"event"},{"inputs":[],"name":"admin","outputs":[{"internalType":"address","name":"","type":"address"}],"stateMutability":"view","type":"function"},{"inputs":[{"internalType":"string","name":"_hash","type":"string"}],"name":"storeCertificate","outputs":[],"stateMutability":"nonpayable","type":"function"},{"inputs":[{"internalType":"string","name":"_hash","type":"string"}],"name":"verifyCertificate","outputs":[{"internalType":"bool","name":"","type":"bool"}],"stateMutability":"view","type":"function"}],"evm":{"bytecode":{"linkReferences":{},"object":"608060405234801561001057600080fd5b50336000806101000a81548173ffffffffffffffffffffffffffffffffffffffff021916908373ffffffffffffffffffffffffffffffffffffffff1602179055506105c0806100606000396000f3fe608060405234801561001057600080fd5b50600436106100415760003560e01c80638b23d87514610046578063aaf4004014610076578063f851a44014610092575b600080fd5b610060600480360381019061005b9190610341565b6100b0565b60405161006d91906103a5565b60405180910390f35b610090600480360381019061008b9190610341565b6100e5565b005b61009a6101c3565b6040516100a79190610401565b60405180910390f35b60006001826040516100c2919061048d565b908152602001604051809103902060009054906101000a900460ff169050919050565b6001816040516100f5919061048d565b908152602001604051809103902060009054906101000a900460ff1615610151576040517f08c379a000000000000000000000000000000000000000000000000000000000815260040161014890610501565b60405180910390fd5b60018082604051610162919061048d565b908152602001604051809103902060006101000a81548160ff0219169083151502179055507f8dc4886fadba57cd440b46ee9e42624e6a4083496d8340e6089dddc85ea2a43881336040516101b892919061055a565b60405180910390a150565b60008054906101000a900473ffffffffffffffffffffffffffffffffffffffff1681565b6000604051905090565b600080fd5b600080fd5b600080fd5b600080fd5b6000601f19601f8301169050919050565b7f4e487b7100000000000000000000000000000000000000000000000000000000600052604160045260246000fd5b61024e82610205565b810181811067ffffffffffffffff8211171561026d5761026c610216565b5b80604052505050565b60006102806101e7565b905061028c8282610245565b919050565b600067ffffffffffffffff8211156102ac576102ab610216565b5b6102b582610205565b9050602081019050919050565b82818337600083830152505050565b60006102e46102df84610291565b610276565b905082815260208101848484011115610300576102ff610200565b5b61030b8482856102c2565b509392505050565b600082601f830112610328576103276101fb565b5b81356103388482602086016102d1565b91505092915050565b600060208284031215610357576103566101f1565b5b600082013567ffffffffffffffff811115610375576103746101f6565b5b61038184828501610313565b91505092915050565b60008115159050919050565b61039f8161038a565b82525050565b60006020820190506103ba6000830184610396565b92915050565b600073ffffffffffffffffffffffffffffffffffffffff82169050919050565b60006103eb826103c0565b9050919050565b6103fb816103e0565b82525050565b600060208201905061041660008301846103f2565b92915050565b600081519050919050565b600081905092915050565b60005b83811015610450578082015181840152602081019050610435565b60008484015250505050565b60006104678261041c565b6104718185610427565b9350610481818560208601610432565b80840191505092915050565b6000610499828461045c565b915081905092915050565b600082825260208201905092915050565b7f436572746966696361746520616c726561647920657869737473000000000000600082015250565b60006104eb601a836104a4565b91506104f6826104b5565b602082019050919050565b6000602082019050818103600083015261051a816104de565b9050919050565b600061052c8261041c565b61053681856104a4565b9350610546818560208601610432565b61054f81610205565b840191505092915050565b600060408201905081810360008301526105748185610521565b905061058360208301846103f2565b939250505056fea2646970667358221220465fd4dcef745b9e3413eadd7fa96b85e03753d4734f6a75c710584b46cb9ca764736f6c63430008140033","opcodes":"PUSH1 0x80 PUSH1 0x40 MSTORE CALLVALUE DUP1 ISZERO PUSH2 0x10 JUMPI PUSH1 0x0 DUP1 REVERT JUMPDEST POP CALLER PUSH1 0x0 DUP1 PUSH2 0x100 EXP DUP2 SLOAD DUP2 PUSH20 0xFFFFFFFFFFFFFFFFFFFFFFFFFFFFFFFFFFFFFFFF MUL NOT AND SWAP1 DUP4 PUSH20 0xFFFFFFFFFFFFFFFFFFFFFFFFFFFFFFFFFFFFFFFF AND MUL OR SWAP1 SSTORE POP PUSH2 0x5C0 DUP1 PUSH2 0x60 PUSH1 0x0 CODECOPY PUSH1 0x0 RETURN INVALID PUSH1 0x80 PUSH1 0x40 MSTORE CALLVALUE DUP1 ISZERO PUSH2 0x10 JUMPI PUSH1 0x0 DUP1 REVERT JUMPDEST POP PUSH1 0x4 CALLDATASIZE LT PUSH2 0x41 JUMPI PUSH1 0x0 CALLDATALOAD PUSH1 0xE0 SHR DUP1 PUSH4 0x8B23D875 EQ PUSH2 0x46 JUMPI DUP1 PUSH4 0xAAF40040 EQ PUSH2 0x76 JUMPI DUP1 PUSH4 0xF851A440 EQ PUSH2 0x92 JUMPI JUMPDEST PUSH1 0x0 DUP1 REVERT JUMPDEST PUSH2 0x60 PUSH1 0x4 DUP1 CALLDATASIZE SUB DUP2 ADD SWAP1 PUSH2 0x5B SWAP2 SWAP1 PUSH2 0x341 JUMP JUMPDEST PUSH2 0xB0 JUMP JUMPDEST PUSH1 0x40 MLOAD PUSH2 0x6D SWAP2 SWAP1 PUSH2 0x3A5 JUMP JUMPDEST PUSH1 0x40 MLOAD DUP1 SWAP2 SUB SWAP1 RETURN JUMPDEST PUSH2 0x90 PUSH1 0x4 DUP1 CALLDATASIZE SUB DUP2 ADD SWAP1 PUSH2 0x8B SWAP2 SWAP1 PUSH2 0x341 JUMP JUMPDEST PUSH2 0xE5 JUMP JUMPDEST STOP JUMPDEST PUSH2 0x9A PUSH2 0x1C3 JUMP JUMPDEST PUSH1 0x40 MLOAD PUSH2 0xA7 SWAP2 SWAP1 PUSH2 0x401 JUMP JUMPDEST PUSH1 0x40 MLOAD DUP1 SWAP2 SUB SWAP1 RETURN JUMPDEST PUSH1 0x0 PUSH1 0x1 DUP3 PUSH1 0x40 MLOAD PUSH2 0xC2 SWAP2 SWAP1 PUSH2 0x48D JUMP JUMPDEST SWAP1 DUP2 MSTORE PUSH1 0x20 ADD PUSH1 0x40 MLOAD DUP1 SWAP2 SUB SWAP1 KECCAK256 PUSH1 0x0 SWAP1 SLOAD SWAP1 PUSH2 0x100 EXP SWAP1 DIV PUSH1 0xFF AND SWAP1 POP SWAP2 SWAP1 POP JUMP JUMPDEST PUSH1 0x1 DUP2 PUSH1 0x40 MLOAD PUSH2 0xF5 SWAP2 SWAP1 PUSH2 0x48D JUMP JUMPDEST SWAP1 DUP2 MSTORE PUSH1 0x20 ADD PUSH1 0x40 MLOAD DUP1 SWAP2 SUB SWAP1 KECCAK256 PUSH1 0x0 SWAP1 SLOAD SWAP1 PUSH2 0x100 EXP SWAP1 DIV PUSH1 0xFF AND ISZERO PUSH2 0x151 JUMPI PUSH1 0x40 MLOAD PUSH32 0x8C379A000000000000000000000000000000000000000000000000000000000 DUP2 MSTORE PUSH1 0x4 ADD PUSH2 0x148 SWAP1 PUSH2 0x501 JUMP JUMPDEST PUSH1 0x40 MLOAD DUP1 SWAP2 SUB SWAP1 REVERT JUMPDEST PUSH1 0x1 DUP1 DUP3 PUSH1 0x40 MLOAD PUSH2 0x162 SWAP2 SWAP1 PUSH2 0x48D JUMP JUMPDEST SWAP1 DUP2 MSTORE PUSH1 0x20 ADD PUSH1 0x40 MLOAD DUP1 SWAP2 SUB SWAP1 KECCAK256 PUSH1 0x0 PUSH2 0x100 EXP DUP2 SLOAD DUP2 PUSH1 0xFF MUL NOT AND SWAP1 DUP4 ISZERO ISZERO MUL OR SWAP1 SSTORE POP PUSH32 0x8DC4886FADBA57CD440B46EE9E42624E6A4083496D8340E6089DDDC85EA2A438 DUP2 CALLER PUSH1 0x40 MLOAD PUSH2 0x1B8 SWAP3 SWAP2 SWAP1 PUSH2 0x55A JUMP JUMPDEST PUSH1 0x40 MLOAD DUP1 SWAP2 SUB SWAP1 LOG1 POP JUMP JUMPDEST PUSH1 0x0 DUP1 SLOAD SWAP1 PUSH2 0x100 EXP SWAP1 DIV PUSH20 0xFFFFFFFFFFFFFFFFFFFFFFFFFFFFFFFFFFFFFFFF AND DUP2 JUMP JUMPDEST PUSH1 0x0 PUSH1 0x40 MLOAD SWAP1 POP SWAP1 JUMP JUMPDEST PUSH1 0x0 DUP1 REVERT JUMPDEST PUSH1 0x0 DUP1 REVERT JUMPDEST PUSH1 0x0 DUP1 REVERT JUMPDEST PUSH1 0x0 DUP1 REVERT JUMPDEST PUSH1 0x0 PUSH1 0x1F NOT PUSH1 0x1F DUP4 ADD AND SWAP1 POP SWAP2 SWAP1 POP JUMP JUMPDEST PUSH32 0x4E487B7100000000000000000000000000000000000000000000000000000000 PUSH1 0x0 MSTORE PUSH1 0x41 PUSH1 0x4 MSTORE PUSH1 0x24 PUSH1 0x0 REVERT JUMPDEST PUSH2 0x24E DUP3 PUSH2 0x205 JUMP JUMPDEST DUP2 ADD DUP2 DUP2 LT PUSH8 0xFFFFFFFFFFFFFFFF DUP3 GT OR ISZERO PUSH2 0x26D JUMPI PUSH2 0x26C PUSH2 0x216 JUMP JUMPDEST JUMPDEST DUP1 PUSH1 0x40 MSTORE POP POP POP JUMP JUMPDEST PUSH1 0x0 PUSH2 0x280 PUSH2 0x1E7 JUMP JUMPDEST SWAP1 POP PUSH2 0x28C DUP3 DUP3 PUSH2 0x245 JUMP JUMPDEST SWAP2 SWAP1 POP JUMP JUMPDEST PUSH1 0x0 PUSH8 0xFFFFFFFFFFFFFFFF DUP3 GT ISZERO PUSH2 0x2AC JUMPI PUSH2 0x2AB PUSH2 0x216 JUMP JUMPDEST JUMPDEST PUSH2 0x2B5 DUP3 PUSH2 0x205 JUMP JUMPDEST SWAP1 POP PUSH1 0x20 DUP2 ADD SWAP1 POP SWAP2 SWAP1 POP JUMP JUMPDEST DUP3 DUP2 DUP4 CALLDATACOPY PUSH1 0x0 DUP4 DUP4 ADD MSTORE POP POP POP JUMP JUMPDEST PUSH1 0x0 PUSH2 0x2E4 PUSH2 0x2DF DUP5 PUSH2 0x291 JUMP JUMPDEST PUSH2 0x276 JUMP JUMPDEST SWAP1 POP DUP3 DUP2 MSTORE PUSH1 0x20 DUP2 ADD DUP5 DUP5 DUP5 ADD GT ISZERO PUSH2 0x300 JUMPI PUSH2 0x2FF PUSH2 0x200 JUMP JUMPDEST JUMPDEST PUSH2 0x30B DUP5 DUP3 DUP6 PUSH2 0x2C2 JUMP JUMPDEST POP SWAP4 SWAP3 POP POP POP JUMP JUMPDEST PUSH1 0x0 DUP3 PUSH1 0x1F DUP4 ADD SLT PUSH2 0x328 JUMPI PUSH2 0x327 PUSH2 0x1FB JUMP JUMPDEST JUMPDEST DUP2 CALLDATALOAD PUSH2 0x338 DUP5 DUP3 PUSH1 0x20 DUP7 ADD PUSH2 0x2D1 JUMP JUMPDEST SWAP2 POP POP SWAP3 SWAP2 POP POP JUMP JUMPDEST PUSH1 0x0 PUSH1 0x20 DUP3 DUP5 SUB SLT ISZERO PUSH2 0x357 JUMPI PUSH2 0x356 PUSH2 0x1F1 JUMP JUMPDEST JUMPDEST PUSH1 0x0 DUP3 ADD CALLDATALOAD PUSH8 0xFFFFFFFFFFFFFFFF DUP2 GT ISZERO PUSH2 0x375 JUMPI PUSH2 0x374 PUSH2 0x1F6 JUMP JUMPDEST JUMPDEST PUSH2 0x381 DUP5 DUP3 DUP6 ADD PUSH2 0x313 JUMP JUMPDEST SWAP2 POP POP SWAP3 SWAP2 POP POP JUMP JUMPDEST PUSH1 0x0 DUP2 ISZERO ISZERO SWAP1 POP SWAP2 SWAP1 POP JUMP JUMPDEST PUSH2 0x39F DUP2 PUSH2 0x38A JUMP JUMPDEST DUP3 MSTORE POP POP JUMP JUMPDEST PUSH1 0x0 PUSH1 0x20 DUP3 ADD SWAP1 POP PUSH2 0x3BA PUSH1 0x0 DUP4 ADD DUP5 PUSH2 0x396 JUMP JUMPDEST SWAP3 SWAP2 POP POP JUMP JUMPDEST PUSH1 0x0 PUSH20 0xFFFFFFFFFFFFFFFFFFFFFFFFFFFFFFFFFFFFFFFF DUP3 AND SWAP1 POP SWAP2 SWAP1 POP JUMP JUMPDEST PUSH1 0x0 PUSH2 0x3EB DUP3 PUSH2 0x3C0 JUMP JUMPDEST SWAP1 POP SWAP2 SWAP1 POP JUMP JUMPDEST PUSH2 0x3FB DUP2 PUSH2 0x3E0 JUMP JUMPDEST DUP3 MSTORE POP POP JUMP JUMPDEST PUSH1 0x0 PUSH1 0x20 DUP3 ADD SWAP1 POP PUSH2 0x416 PUSH1 0x0 DUP4 ADD DUP5 PUSH2 0x3F2 JUMP JUMPDEST SWAP3 SWAP2 POP POP JUMP JUMPDEST PUSH1 0x0 DUP2 MLOAD SWAP1 POP SWAP2 SWAP1 POP JUMP JUMPDEST PUSH1 0x0 DUP2 SWAP1 POP SWAP3 SWAP2 POP POP JUMP JUMPDEST PUSH1 0x0 JUMPDEST DUP4 DUP2 LT ISZERO PUSH2 0x450 JUMPI DUP1 DUP3 ADD MLOAD DUP2 DUP5 ADD MSTORE PUSH1 0x20 DUP2 ADD SWAP1 POP PUSH2 0x435 JUMP JUMPDEST PUSH1 0x0 DUP5 DUP5 ADD MSTORE POP POP POP POP JUMP JUMPDEST PUSH1 0x0 PUSH2 0x467 DUP3 PUSH2 0x41C JUMP JUMPDEST PUSH2 0x471 DUP2 DUP6 PUSH2 0x427 JUMP JUMPDEST SWAP4 POP PUSH2 0x481 DUP2 DUP6 PUSH1 0x20 DUP7 ADD PUSH2 0x432 JUMP JUMPDEST DUP1 DUP5 ADD SWAP2 POP POP SWAP3 SWAP2 POP POP JUMP JUMPDEST PUSH1 0x0 PUSH2 0x499 DUP3 DUP5 PUSH2 0x45C JUMP JUMPDEST SWAP2 POP DUP2 SWAP1 POP SWAP3 SWAP2 POP POP JUMP JUMPDEST PUSH1 0x0 DUP3 DUP3 MSTORE PUSH1 0x20 DUP3 ADD SWAP1 POP SWAP3 SWAP2 POP POP JUMP JUMPDEST PUSH32 0x436572746966696361746520616C726561647920657869737473000000000000 PUSH1 0x0 DUP3 ADD MSTORE POP JUMP JUMPDEST PUSH1 0x0 PUSH2 0x4EB PUSH1 0x1A DUP4 PUSH2 0x4A4 JUMP JUMPDEST SWAP2 POP PUSH2 0x4F6 DUP3 PUSH2 0x4B5 JUMP JUMPDEST PUSH1 0x20 DUP3 ADD SWAP1 POP SWAP2 SWAP1 POP JUMP JUMPDEST PUSH1 0x0 PUSH1 0x20 DUP3 ADD SWAP1 POP DUP2 DUP2 SUB PUSH1 0x0 DUP4 ADD MSTORE PUSH2 0x51A DUP2 PUSH2 0x4DE JUMP JUMPDEST SWAP1 POP SWAP2 SWAP1 POP JUMP JUMPDEST PUSH1 0x0 PUSH2 0x52C DUP3 PUSH2 0x41C JUMP JUMPDEST PUSH2 0x536 DUP2 DUP6 PUSH2 0x4A4 JUMP JUMPDEST SWAP4 POP PUSH2 0x546 DUP2 DUP6 PUSH1 0x20 DUP7 ADD PUSH2 0x432 JUMP JUMPDEST PUSH2 0x54F DUP2 PUSH2 0x205 JUMP JUMPDEST DUP5 ADD SWAP2 POP POP SWAP3 SWAP2 POP POP JUMP JUMPDEST PUSH1 0x0 PUSH1 0x40 DUP3 ADD SWAP1 POP DUP2 DUP2 SUB PUSH1 0x0 DUP4 ADD MSTORE PUSH2 0x574 DUP2 DUP6 PUSH2 0x521 JUMP JUMPDEST SWAP1 POP PUSH2 0x583 PUSH1 0x20 DUP4 ADD DUP5 PUSH2 0x3F2 JUMP JUMPDEST SWAP4 SWAP3 POP POP POP JUMP INVALID LOG2 PUSH5 0x6970667358 0x22 SLT KECCAK256 CHAINID PUSH0 0xD4 0xDC 0xEF PUSH21 0x5B9E3413EADD7FA96B85E03753D4734F6A75C71058 0x4B CHAINID 0xCB SWAP13 0xA7 PUSH5 0x736F6C6343 STOP ADDMOD EQ STOP CALLER "},"methodIdentifiers":{"admin()":"f851a440","storeCertificate(string)":"aaf40040","verifyCertificate(string)":"8b23d875"}}}}}