{
  "_format": "hh-sol-artifact-1",
  "contractName": "CertificateRegistry",
  "sourceName": "contracts/CertificateRegistry.sol",
  "abi": [
    {
      "inputs": [],
      "stateMutability": "nonpayable",
      "type": "constructor"
    },
    {
      "anonymous": false,
      "inputs": [
        {
          "indexed": false,
          "internalType": "string",
          "name": "hash",
          "type": "string"
        },
        {
          "indexed": false,
          "internalType": "address",
          "name": "storedBy",
          "type": "address"
        }
      ],
      "name": "CertificateStored",
      "type": "event"
    },
    {
      "inputs": [],
      "name": "admin",
      "outputs": [
        {
          "internalType": "address",
          "name": "",
          "type": "address"
        }
      ],
      "stateMutability": "view",
      "type": "function"
    },
    {
      "inputs": [
        {
          "internalType": "string",
          "name": "_hash",
          "type": "string"
        }
      ],
      "name": "storeCertificate",
      "outputs": [],
      "stateMutability": "nonpayable",
      "type": "function"
    },
    {
      "inputs": [
        {
          "internalType": "string",
          "name": "_hash",
          "type": "string"
        }
      ],
      "name": "verifyCertificate",
      "outputs": [
        {
          "internalType": "bool",
          "name": "",
          "type": "bool"
        }
      ],
      "stateMutability": "view",
      "type": "function"
    }
  ],
  "bytecode": "0x608060405234801561001057600080fd5b50336000806101000a81548173ffffffffffffffffffffffffffffffffffffffff021916908373ffffffffffffffffffffffffffffffffffffffff1602179055506105c0806100606000396000f3fe608060405234801561001057600080fd5b50600436106100415760003560e01c80638b23d87514610046578063aaf4004014610076578063f851a44014610092575b600080fd5b610060600480360381019061005b9190610341565b6100b0565b60405161006d91906103a5565b60405180910390f35b610090600480360381019061008b9190610341565b6100e5565b005b61009a6101c3565b6040516100a79190610401565b60405180910390f35b60006001826040516100c2919061048d565b908152602001604051809103902060009054906101000a900460ff169050919050565b6001816040516100f5919061048d565b908152602001604051809103902060009054906101000a900460ff1615610151576040517f08c379a000000000000000000000000000000000000000000000000000000000815260040161014890610501565b60405180910390fd5b60018082604051610162919061048d565b908152602001604051809103902060006101000a81548160ff0219169083151502179055507f8dc4886fadba57cd440b46ee9e42624e6a4083496d8340e6089dddc85ea2a43881336040516101b892919061055a565b60405180910390a150565b60008054906101000a900473ffffffffffffffffffffffffffffffffffffffff1681565b6000604051905090565b600080fd5b600080fd5b600080fd5b600080fd5b6000601f19601f8301169050919050565b7f4e487b7100000000000000000000000000000000000000000000000000000000600052604160045260246000fd5b61024e82610205565b810181811067ffffffffffffffff8211171561026d5761026c610216565b5b80604052505050565b60006102806101e7565b905061028c8282610245565b919050565b600067ffffffffffffffff8211156102ac576102ab610216565b5b6102b582610205565b9050602081019050919050565b82818337600083830152505050565b60006102e46102df84610291565b610276565b905082815260208101848484011115610300576102ff610200565b5b61030b8482856102c2565b509392505050565b600082601f830112610328576103276101fb565b5b81356103388482602086016102d1565b91505092915050565b600060208284031215610357576103566101f1565b5b600082013567ffffffffffffffff811115610375576103746101f6565b5b61038184828501610313565b91505092915050565b60008115159050919050565b61039f8161038a565b82525050565b60006020820190506103ba6000830184610396565b92915050565b600073ffffffffffffffffffffffffffffffffffffffff82169050919050565b60006103eb826103c0565b9050919050565b6103fb816103e0565b82525050565b600060208201905061041660008301846103f2565b92915050565b600081519050919050565b600081905092915050565b60005b83811015610450578082015181840152602081019050610435565b60008484015250505050565b60006104678261041c565b6104718185610427565b9350610481818560208601610432565b80840191505092915050565b6000610499828461045c565b915081905092915050565b600082825260208201905092915050565b7f436572746966696361746520616c726561647920657869737473000000000000600082015250565b60006104eb601a836104a4565b91506104f6826104b5565b602082019050919050565b6000602082019050818103600083015261051a816104de565b9050919050565b600061052c8261041c565b61053681856104a4565b9350610546818560208601610432565b61054f81610205565b840191505092915050565b600060408201905081810360008301526105748185610521565b905061058360208301846103f2565b939250505056fea2646970667358221220465fd4dcef745b9e3413eadd7fa96b85e03753d4734f6a75c710584b46cb9ca764736f6c63430008140033",
  "linkReferences": {},
  "deployedLinkReferences": {}
}